{
  "contractName": "StateChGaming",
  "abi": [
    {
      "constant": true,
      "inputs": [
        {
          "name": "",
          "type": "uint256"
        }
      ],
      "name": "allGames",
      "outputs": [
        {
          "name": "gamePayout",
          "type": "uint256"
        },
        {
          "name": "tokenAddr",
          "type": "address"
        },
        {
          "name": "state",
          "type": "uint256"
        },
        {
          "name": "p1",
          "type": "address"
        },
        {
          "name": "p2",
          "type": "address"
        },
        {
          "name": "blockNum",
          "type": "uint256"
        },
        {
          "name": "vcAddr",
          "type": "address"
        },
        {
          "name": "blocksPerTurn",
          "type": "uint256"
        }
      ],
      "payable": false,
      "stateMutability": "view",
      "type": "function"
    },
    {
      "constant": false,
      "inputs": [
        {
          "name": "_stakedAmount",
          "type": "uint256"
        },
        {
          "name": "_erc20Addr",
          "type": "address"
        },
        {
          "name": "_gameID",
          "type": "uint256"
        },
        {
          "name": "_p1",
          "type": "address"
        },
        {
          "name": "_p2",
          "type": "address"
        },
        {
          "name": "_vcAddr",
          "type": "address"
        },
        {
          "name": "_blocksPerTurn",
          "type": "uint256"
        },
        {
          "name": "_v",
          "type": "uint8"
        },
        {
          "name": "_r",
          "type": "bytes32"
        },
        {
          "name": "_s",
          "type": "bytes32"
        }
      ],
      "name": "initGame",
      "outputs": [],
      "payable": false,
      "stateMutability": "nonpayable",
      "type": "function"
    },
    {
      "constant": false,
      "inputs": [
        {
          "name": "_gameID",
          "type": "uint256"
        },
        {
          "name": "_state",
          "type": "uint256"
        },
        {
          "name": "_v",
          "type": "uint8"
        },
        {
          "name": "_r",
          "type": "bytes32"
        },
        {
          "name": "_s",
          "type": "bytes32"
        }
      ],
      "name": "initBCMove",
      "outputs": [],
      "payable": false,
      "stateMutability": "nonpayable",
      "type": "function"
    },
    {
      "constant": false,
      "inputs": [
        {
          "name": "_gameID",
          "type": "uint256"
        }
      ],
      "name": "makeMoveTimed",
      "outputs": [],
      "payable": false,
      "stateMutability": "nonpayable",
      "type": "function"
    },
    {
      "constant": false,
      "inputs": [
        {
          "name": "_gameID",
          "type": "uint256"
        }
      ],
      "name": "makeMoveUntimed",
      "outputs": [],
      "payable": false,
      "stateMutability": "nonpayable",
      "type": "function"
    },
    {
      "constant": false,
      "inputs": [
        {
          "name": "_gameID",
          "type": "uint256"
        },
        {
          "name": "_state",
          "type": "uint256"
        }
      ],
      "name": "enforcedBCMove",
      "outputs": [],
      "payable": false,
      "stateMutability": "nonpayable",
      "type": "function"
    },
    {
      "constant": false,
      "inputs": [
        {
          "name": "_gameID",
          "type": "uint256"
        },
        {
          "name": "_state",
          "type": "uint256"
        }
      ],
      "name": "unenforcedBCMove",
      "outputs": [],
      "payable": false,
      "stateMutability": "nonpayable",
      "type": "function"
    },
    {
      "constant": false,
      "inputs": [
        {
          "name": "_gameID",
          "type": "uint256"
        }
      ],
      "name": "payoutVictory",
      "outputs": [],
      "payable": false,
      "stateMutability": "nonpayable",
      "type": "function"
    },
    {
      "constant": false,
      "inputs": [
        {
          "name": "_gameID",
          "type": "uint256"
        }
      ],
      "name": "payoutTimeout",
      "outputs": [],
      "payable": false,
      "stateMutability": "nonpayable",
      "type": "function"
    }
  ],
  "bytecode": "0x608060405234801561001057600080fd5b506131fe806100206000396000f3fe608060405260043610610099576000357c0100000000000000000000000000000000000000000000000000000000900463ffffffff16806326c792181461009e57806370738235146100d95780638b64261814610114578063a0b5509514610159578063ae5a8d4614610289578063cf274582146102c4578063e839aadf146102ff578063eb10d98914610365578063f5770389146103aa575b600080fd5b3480156100aa57600080fd5b506100d7600480360360208110156100c157600080fd5b810190808035906020019092919050505061049b565b005b3480156100e557600080fd5b50610112600480360360208110156100fc57600080fd5b8101908080359060200190929190505050610980565b005b34801561012057600080fd5b506101576004803603604081101561013757600080fd5b810190808035906020019092919080359060200190929190505050610d5f565b005b34801561016557600080fd5b506101926004803603602081101561017c57600080fd5b81019080803590602001909291905050506112d3565b604051808981526020018873ffffffffffffffffffffffffffffffffffffffff1673ffffffffffffffffffffffffffffffffffffffff1681526020018781526020018673ffffffffffffffffffffffffffffffffffffffff1673ffffffffffffffffffffffffffffffffffffffff1681526020018573ffffffffffffffffffffffffffffffffffffffff1673ffffffffffffffffffffffffffffffffffffffff1681526020018481526020018373ffffffffffffffffffffffffffffffffffffffff1673ffffffffffffffffffffffffffffffffffffffff1681526020018281526020019850505050505050505060405180910390f35b34801561029557600080fd5b506102c2600480360360208110156102ac57600080fd5b810190808035906020019092919050505061139b565b005b3480156102d057600080fd5b506102fd600480360360208110156102e757600080fd5b81019080803590602001909291905050506117d9565b005b34801561030b57600080fd5b50610363600480360360a081101561032257600080fd5b810190808035906020019092919080359060200190929190803560ff1690602001909291908035906020019092919080359060200190929190505050611bab565b005b34801561037157600080fd5b506103a86004803603604081101561038857600080fd5b81019080803590602001909291908035906020019092919050505061218e565b005b3480156103b657600080fd5b5061049960048036036101408110156103ce57600080fd5b8101908080359060200190929190803573ffffffffffffffffffffffffffffffffffffffff16906020019092919080359060200190929190803573ffffffffffffffffffffffffffffffffffffffff169060200190929190803573ffffffffffffffffffffffffffffffffffffffff169060200190929190803573ffffffffffffffffffffffffffffffffffffffff16906020019092919080359060200190929190803560ff16906020019092919080359060200190929190803590602001909291905050506126f5565b005b6104a3613134565b6000808381526020019081526020016000206101006040519081016040529081600082015481526020016001820160009054906101000a900473ffffffffffffffffffffffffffffffffffffffff1673ffffffffffffffffffffffffffffffffffffffff1673ffffffffffffffffffffffffffffffffffffffff168152602001600282015481526020016003820160009054906101000a900473ffffffffffffffffffffffffffffffffffffffff1673ffffffffffffffffffffffffffffffffffffffff1673ffffffffffffffffffffffffffffffffffffffff1681526020016004820160009054906101000a900473ffffffffffffffffffffffffffffffffffffffff1673ffffffffffffffffffffffffffffffffffffffff1673ffffffffffffffffffffffffffffffffffffffff168152602001600582015481526020016006820160009054906101000a900473ffffffffffffffffffffffffffffffffffffffff1673ffffffffffffffffffffffffffffffffffffffff1673ffffffffffffffffffffffffffffffffffffffff16815260200160078201548152505090508060e001518160a0015101431115156106eb576040517f08c379a00000000000000000000000000000000000000000000000000000000081526004018080602001828103825260268152602001807f63616e27742063757272656e746c7920706179206f75742064756520746f207481526020017f696d656f7574000000000000000000000000000000000000000000000000000081525060400191505060405180910390fd5b8060c0015173ffffffffffffffffffffffffffffffffffffffff1663993064ca82604001516040518263ffffffff167c01000000000000000000000000000000000000000000000000000000000281526004018082815260200191505060206040518083038186803b15801561076057600080fd5b505afa158015610774573d6000803e3d6000fd5b505050506040513d602081101561078a57600080fd5b81019080805190602001909291905050501561089057806020015173ffffffffffffffffffffffffffffffffffffffff1663a9059cbb826060015183600001516040518363ffffffff167c0100000000000000000000000000000000000000000000000000000000028152600401808373ffffffffffffffffffffffffffffffffffffffff1673ffffffffffffffffffffffffffffffffffffffff16815260200182815260200192505050602060405180830381600087803b15801561084f57600080fd5b505af1158015610863573d6000803e3d6000fd5b505050506040513d602081101561087957600080fd5b81019080805190602001909291905050505061097c565b806020015173ffffffffffffffffffffffffffffffffffffffff1663a9059cbb826080015183600001516040518363ffffffff167c0100000000000000000000000000000000000000000000000000000000028152600401808373ffffffffffffffffffffffffffffffffffffffff1673ffffffffffffffffffffffffffffffffffffffff16815260200182815260200192505050602060405180830381600087803b15801561093f57600080fd5b505af1158015610953573d6000803e3d6000fd5b505050506040513d602081101561096957600080fd5b8101908080519060200190929190505050505b5050565b80610989613134565b6000808381526020019081526020016000206101006040519081016040529081600082015481526020016001820160009054906101000a900473ffffffffffffffffffffffffffffffffffffffff1673ffffffffffffffffffffffffffffffffffffffff1673ffffffffffffffffffffffffffffffffffffffff168152602001600282015481526020016003820160009054906101000a900473ffffffffffffffffffffffffffffffffffffffff1673ffffffffffffffffffffffffffffffffffffffff1673ffffffffffffffffffffffffffffffffffffffff1681526020016004820160009054906101000a900473ffffffffffffffffffffffffffffffffffffffff1673ffffffffffffffffffffffffffffffffffffffff1673ffffffffffffffffffffffffffffffffffffffff168152602001600582015481526020016006820160009054906101000a900473ffffffffffffffffffffffffffffffffffffffff1673ffffffffffffffffffffffffffffffffffffffff1673ffffffffffffffffffffffffffffffffffffffff16815260200160078201548152505090508060c0015173ffffffffffffffffffffffffffffffffffffffff1663993064ca82604001516040518263ffffffff167c01000000000000000000000000000000000000000000000000000000000281526004018082815260200191505060206040518083038186803b158015610b9f57600080fd5b505afa158015610bb3573d6000803e3d6000fd5b505050506040513d6020811015610bc957600080fd5b810190808051906020019092919050505015610c8b57806060015173ffffffffffffffffffffffffffffffffffffffff163373ffffffffffffffffffffffffffffffffffffffff16141515610c86576040517f08c379a00000000000000000000000000000000000000000000000000000000081526004018080602001828103825260158152602001807f6d73672073656e64657220697320696e76616c6964000000000000000000000081525060200191505060405180910390fd5b610d33565b806080015173ffffffffffffffffffffffffffffffffffffffff163373ffffffffffffffffffffffffffffffffffffffff16141515610d32576040517f08c379a00000000000000000000000000000000000000000000000000000000081526004018080602001828103825260158152602001807f6d73672073656e64657220697320696e76616c6964000000000000000000000081525060200191505060405180910390fd5b5b6c01431e0fae6d7217caa000000060008085815260200190815260200160002060050181905550505050565b8181610d69613134565b6000808481526020019081526020016000206101006040519081016040529081600082015481526020016001820160009054906101000a900473ffffffffffffffffffffffffffffffffffffffff1673ffffffffffffffffffffffffffffffffffffffff1673ffffffffffffffffffffffffffffffffffffffff168152602001600282015481526020016003820160009054906101000a900473ffffffffffffffffffffffffffffffffffffffff1673ffffffffffffffffffffffffffffffffffffffff1673ffffffffffffffffffffffffffffffffffffffff1681526020016004820160009054906101000a900473ffffffffffffffffffffffffffffffffffffffff1673ffffffffffffffffffffffffffffffffffffffff1673ffffffffffffffffffffffffffffffffffffffff168152602001600582015481526020016006820160009054906101000a900473ffffffffffffffffffffffffffffffffffffffff1673ffffffffffffffffffffffffffffffffffffffff1673ffffffffffffffffffffffffffffffffffffffff16815260200160078201548152505090508060c0015173ffffffffffffffffffffffffffffffffffffffff1663993064ca82604001516040518263ffffffff167c01000000000000000000000000000000000000000000000000000000000281526004018082815260200191505060206040518083038186803b158015610f7f57600080fd5b505afa158015610f93573d6000803e3d6000fd5b505050506040513d6020811015610fa957600080fd5b81019080805190602001909291905050501561106b57806080015173ffffffffffffffffffffffffffffffffffffffff163373ffffffffffffffffffffffffffffffffffffffff16141515611066576040517f08c379a00000000000000000000000000000000000000000000000000000000081526004018080602001828103825260158152602001807f6d73672073656e64657220697320696e76616c6964000000000000000000000081525060200191505060405180910390fd5b611113565b806060015173ffffffffffffffffffffffffffffffffffffffff163373ffffffffffffffffffffffffffffffffffffffff16141515611112576040517f08c379a00000000000000000000000000000000000000000000000000000000081526004018080602001828103825260158152602001807f6d73672073656e64657220697320696e76616c6964000000000000000000000081525060200191505060405180910390fd5b5b8484600081905060008084815260200190815260200160002060060160009054906101000a900473ffffffffffffffffffffffffffffffffffffffff1673ffffffffffffffffffffffffffffffffffffffff1663f546cb5e60008086815260200190815260200160002060020154836040518363ffffffff167c0100000000000000000000000000000000000000000000000000000000028152600401808381526020018281526020019250505060206040518083038186803b1580156111d957600080fd5b505afa1580156111ed573d6000803e3d6000fd5b505050506040513d602081101561120357600080fd5b81019080805190602001909291905050501515611288576040517f08c379a00000000000000000000000000000000000000000000000000000000081526004018080602001828103825260148152602001807f696e76616c69642073746174652075706461746500000000000000000000000081525060200191505060405180910390fd5b6c01431e0fae6d7217caa00000006000808a815260200190815260200160002060050181905550866000808a8152602001908152602001600020600201819055505050505050505050565b60006020528060005260406000206000915090508060000154908060010160009054906101000a900473ffffffffffffffffffffffffffffffffffffffff16908060020154908060030160009054906101000a900473ffffffffffffffffffffffffffffffffffffffff16908060040160009054906101000a900473ffffffffffffffffffffffffffffffffffffffff16908060050154908060060160009054906101000a900473ffffffffffffffffffffffffffffffffffffffff16908060070154905088565b6113a3613134565b6000808381526020019081526020016000206101006040519081016040529081600082015481526020016001820160009054906101000a900473ffffffffffffffffffffffffffffffffffffffff1673ffffffffffffffffffffffffffffffffffffffff1673ffffffffffffffffffffffffffffffffffffffff168152602001600282015481526020016003820160009054906101000a900473ffffffffffffffffffffffffffffffffffffffff1673ffffffffffffffffffffffffffffffffffffffff1673ffffffffffffffffffffffffffffffffffffffff1681526020016004820160009054906101000a900473ffffffffffffffffffffffffffffffffffffffff1673ffffffffffffffffffffffffffffffffffffffff1673ffffffffffffffffffffffffffffffffffffffff168152602001600582015481526020016006820160009054906101000a900473ffffffffffffffffffffffffffffffffffffffff1673ffffffffffffffffffffffffffffffffffffffff1673ffffffffffffffffffffffffffffffffffffffff16815260200160078201548152505090508060c0015173ffffffffffffffffffffffffffffffffffffffff16637acb0efb82604001516040518263ffffffff167c01000000000000000000000000000000000000000000000000000000000281526004018082815260200191505060206040518083038186803b1580156115b957600080fd5b505afa1580156115cd573d6000803e3d6000fd5b505050506040513d60208110156115e357600080fd5b8101908080519060200190929190505050156116e957806020015173ffffffffffffffffffffffffffffffffffffffff1663a9059cbb826060015183600001516040518363ffffffff167c0100000000000000000000000000000000000000000000000000000000028152600401808373ffffffffffffffffffffffffffffffffffffffff1673ffffffffffffffffffffffffffffffffffffffff16815260200182815260200192505050602060405180830381600087803b1580156116a857600080fd5b505af11580156116bc573d6000803e3d6000fd5b505050506040513d60208110156116d257600080fd5b8101908080519060200190929190505050506117d5565b806020015173ffffffffffffffffffffffffffffffffffffffff1663a9059cbb826080015183600001516040518363ffffffff167c0100000000000000000000000000000000000000000000000000000000028152600401808373ffffffffffffffffffffffffffffffffffffffff1673ffffffffffffffffffffffffffffffffffffffff16815260200182815260200192505050602060405180830381600087803b15801561179857600080fd5b505af11580156117ac573d6000803e3d6000fd5b505050506040513d60208110156117c257600080fd5b8101908080519060200190929190505050505b5050565b806117e2613134565b6000808381526020019081526020016000206101006040519081016040529081600082015481526020016001820160009054906101000a900473ffffffffffffffffffffffffffffffffffffffff1673ffffffffffffffffffffffffffffffffffffffff1673ffffffffffffffffffffffffffffffffffffffff168152602001600282015481526020016003820160009054906101000a900473ffffffffffffffffffffffffffffffffffffffff1673ffffffffffffffffffffffffffffffffffffffff1673ffffffffffffffffffffffffffffffffffffffff1681526020016004820160009054906101000a900473ffffffffffffffffffffffffffffffffffffffff1673ffffffffffffffffffffffffffffffffffffffff1673ffffffffffffffffffffffffffffffffffffffff168152602001600582015481526020016006820160009054906101000a900473ffffffffffffffffffffffffffffffffffffffff1673ffffffffffffffffffffffffffffffffffffffff1673ffffffffffffffffffffffffffffffffffffffff16815260200160078201548152505090508060c0015173ffffffffffffffffffffffffffffffffffffffff1663993064ca82604001516040518263ffffffff167c01000000000000000000000000000000000000000000000000000000000281526004018082815260200191505060206040518083038186803b1580156119f857600080fd5b505afa158015611a0c573d6000803e3d6000fd5b505050506040513d6020811015611a2257600080fd5b810190808051906020019092919050505015611ae457806060015173ffffffffffffffffffffffffffffffffffffffff163373ffffffffffffffffffffffffffffffffffffffff16141515611adf576040517f08c379a00000000000000000000000000000000000000000000000000000000081526004018080602001828103825260158152602001807f6d73672073656e64657220697320696e76616c6964000000000000000000000081525060200191505060405180910390fd5b611b8c565b806080015173ffffffffffffffffffffffffffffffffffffffff163373ffffffffffffffffffffffffffffffffffffffff16141515611b8b576040517f08c379a00000000000000000000000000000000000000000000000000000000081526004018080602001828103825260158152602001807f6d73672073656e64657220697320696e76616c6964000000000000000000000081525060200191505060405180910390fd5b5b4360008085815260200190815260200160002060050181905550505050565b611bb3613134565b6000808781526020019081526020016000206101006040519081016040529081600082015481526020016001820160009054906101000a900473ffffffffffffffffffffffffffffffffffffffff1673ffffffffffffffffffffffffffffffffffffffff1673ffffffffffffffffffffffffffffffffffffffff168152602001600282015481526020016003820160009054906101000a900473ffffffffffffffffffffffffffffffffffffffff1673ffffffffffffffffffffffffffffffffffffffff1673ffffffffffffffffffffffffffffffffffffffff1681526020016004820160009054906101000a900473ffffffffffffffffffffffffffffffffffffffff1673ffffffffffffffffffffffffffffffffffffffff1673ffffffffffffffffffffffffffffffffffffffff168152602001600582015481526020016006820160009054906101000a900473ffffffffffffffffffffffffffffffffffffffff1673ffffffffffffffffffffffffffffffffffffffff1673ffffffffffffffffffffffffffffffffffffffff16815260200160078201548152505090506000868660405160200180838152602001828152602001925050506040516020818303038152906040528051906020012090506000611d9582878787613005565b90508073ffffffffffffffffffffffffffffffffffffffff16836060015173ffffffffffffffffffffffffffffffffffffffff161480611e0457503373ffffffffffffffffffffffffffffffffffffffff16836060015173ffffffffffffffffffffffffffffffffffffffff16145b1515611e78576040517f08c379a000000000000000000000000000000000000000000000000000000000815260040180806020018281038252601b8152602001807f6120706c61796572206469646e74207369676e206f722073656e64000000000081525060200191505060405180910390fd5b8073ffffffffffffffffffffffffffffffffffffffff16836080015173ffffffffffffffffffffffffffffffffffffffff161480611ee557503373ffffffffffffffffffffffffffffffffffffffff16836080015173ffffffffffffffffffffffffffffffffffffffff16145b1515611f59576040517f08c379a000000000000000000000000000000000000000000000000000000000815260040180806020018281038252601b8152602001807f6120706c61796572206469646e74207369676e206f722073656e64000000000081525060200191505060405180910390fd5b8260c0015173ffffffffffffffffffffffffffffffffffffffff16633d46b81984604001516040518263ffffffff167c01000000000000000000000000000000000000000000000000000000000281526004018082815260200191505060206040518083038186803b158015611fce57600080fd5b505afa158015611fe2573d6000803e3d6000fd5b505050506040513d6020811015611ff857600080fd5b81019080805190602001909291905050508360c0015173ffffffffffffffffffffffffffffffffffffffff16633d46b819896040518263ffffffff167c01000000000000000000000000000000000000000000000000000000000281526004018082815260200191505060206040518083038186803b15801561207a57600080fd5b505afa15801561208e573d6000803e3d6000fd5b505050506040513d60208110156120a457600080fd5b8101908080519060200190929190505050111515612150576040517f08c379a00000000000000000000000000000000000000000000000000000000081526004018080602001828103825260278152602001807f61206e657720626f617264206d7573742062652061742061206869676865722081526020017f7475726e4e756d0000000000000000000000000000000000000000000000000081525060400191505060405180910390fd5b436000808a815260200190815260200160002060050181905550866000808a8152602001908152602001600020600201819055505050505050505050565b8181612198613134565b6000808481526020019081526020016000206101006040519081016040529081600082015481526020016001820160009054906101000a900473ffffffffffffffffffffffffffffffffffffffff1673ffffffffffffffffffffffffffffffffffffffff1673ffffffffffffffffffffffffffffffffffffffff168152602001600282015481526020016003820160009054906101000a900473ffffffffffffffffffffffffffffffffffffffff1673ffffffffffffffffffffffffffffffffffffffff1673ffffffffffffffffffffffffffffffffffffffff1681526020016004820160009054906101000a900473ffffffffffffffffffffffffffffffffffffffff1673ffffffffffffffffffffffffffffffffffffffff1673ffffffffffffffffffffffffffffffffffffffff168152602001600582015481526020016006820160009054906101000a900473ffffffffffffffffffffffffffffffffffffffff1673ffffffffffffffffffffffffffffffffffffffff1673ffffffffffffffffffffffffffffffffffffffff16815260200160078201548152505090508060c0015173ffffffffffffffffffffffffffffffffffffffff1663993064ca82604001516040518263ffffffff167c01000000000000000000000000000000000000000000000000000000000281526004018082815260200191505060206040518083038186803b1580156123ae57600080fd5b505afa1580156123c2573d6000803e3d6000fd5b505050506040513d60208110156123d857600080fd5b81019080805190602001909291905050501561249a57806080015173ffffffffffffffffffffffffffffffffffffffff163373ffffffffffffffffffffffffffffffffffffffff16141515612495576040517f08c379a00000000000000000000000000000000000000000000000000000000081526004018080602001828103825260158152602001807f6d73672073656e64657220697320696e76616c6964000000000000000000000081525060200191505060405180910390fd5b612542565b806060015173ffffffffffffffffffffffffffffffffffffffff163373ffffffffffffffffffffffffffffffffffffffff16141515612541576040517f08c379a00000000000000000000000000000000000000000000000000000000081526004018080602001828103825260158152602001807f6d73672073656e64657220697320696e76616c6964000000000000000000000081525060200191505060405180910390fd5b5b8484600081905060008084815260200190815260200160002060060160009054906101000a900473ffffffffffffffffffffffffffffffffffffffff1673ffffffffffffffffffffffffffffffffffffffff1663f546cb5e60008086815260200190815260200160002060020154836040518363ffffffff167c0100000000000000000000000000000000000000000000000000000000028152600401808381526020018281526020019250505060206040518083038186803b15801561260857600080fd5b505afa15801561261c573d6000803e3d6000fd5b505050506040513d602081101561263257600080fd5b810190808051906020019092919050505015156126b7576040517f08c379a00000000000000000000000000000000000000000000000000000000081526004018080602001828103825260148152602001807f696e76616c69642073746174652075706461746500000000000000000000000081525060200191505060405180910390fd5b436000808a815260200190815260200160002060050181905550866000808a8152602001908152602001600020600201819055505050505050505050565b8873ffffffffffffffffffffffffffffffffffffffff166323b872dd88308d6040518463ffffffff167c0100000000000000000000000000000000000000000000000000000000028152600401808473ffffffffffffffffffffffffffffffffffffffff1673ffffffffffffffffffffffffffffffffffffffff1681526020018373ffffffffffffffffffffffffffffffffffffffff1673ffffffffffffffffffffffffffffffffffffffff1681526020018281526020019350505050602060405180830381600087803b1580156127cc57600080fd5b505af11580156127e0573d6000803e3d6000fd5b505050506040513d60208110156127f657600080fd5b8101908080519060200190929190505050151561287b576040517f08c379a00000000000000000000000000000000000000000000000000000000081526004018080602001828103825260108152602001807f6e6f7420656e6f7567682066756e64730000000000000000000000000000000081525060200191505060405180910390fd5b8873ffffffffffffffffffffffffffffffffffffffff166323b872dd87308d6040518463ffffffff167c0100000000000000000000000000000000000000000000000000000000028152600401808473ffffffffffffffffffffffffffffffffffffffff1673ffffffffffffffffffffffffffffffffffffffff1681526020018373ffffffffffffffffffffffffffffffffffffffff1673ffffffffffffffffffffffffffffffffffffffff1681526020018281526020019350505050602060405180830381600087803b15801561295257600080fd5b505af1158015612966573d6000803e3d6000fd5b505050506040513d602081101561297c57600080fd5b81019080805190602001909291905050501515612a01576040517f08c379a00000000000000000000000000000000000000000000000000000000081526004018080602001828103825260108152602001807f6e6f7420656e6f7567682066756e64730000000000000000000000000000000081525060200191505060405180910390fd5b60008a8a8a8a8a8a8a604051602001808881526020018773ffffffffffffffffffffffffffffffffffffffff1673ffffffffffffffffffffffffffffffffffffffff166c010000000000000000000000000281526014018681526020018573ffffffffffffffffffffffffffffffffffffffff1673ffffffffffffffffffffffffffffffffffffffff166c010000000000000000000000000281526014018473ffffffffffffffffffffffffffffffffffffffff1673ffffffffffffffffffffffffffffffffffffffff166c010000000000000000000000000281526014018373ffffffffffffffffffffffffffffffffffffffff1673ffffffffffffffffffffffffffffffffffffffff166c010000000000000000000000000281526014018281526020019750505050505050506040516020818303038152906040528051906020012090506000612b5682868686613005565b90508073ffffffffffffffffffffffffffffffffffffffff168973ffffffffffffffffffffffffffffffffffffffff161480612bbd57503373ffffffffffffffffffffffffffffffffffffffff168973ffffffffffffffffffffffffffffffffffffffff16145b1515612c31576040517f08c379a000000000000000000000000000000000000000000000000000000000815260040180806020018281038252601b8152602001807f6120706c61796572206469646e74207369676e206f722073656e64000000000081525060200191505060405180910390fd5b8073ffffffffffffffffffffffffffffffffffffffff168873ffffffffffffffffffffffffffffffffffffffff161480612c9657503373ffffffffffffffffffffffffffffffffffffffff168873ffffffffffffffffffffffffffffffffffffffff16145b1515612d0a576040517f08c379a000000000000000000000000000000000000000000000000000000000815260040180806020018281038252601b8152602001807f6120706c61796572206469646e74207369676e206f722073656e64000000000081525060200191505060405180910390fd5b600073ffffffffffffffffffffffffffffffffffffffff166000808c815260200190815260200160002060030160009054906101000a900473ffffffffffffffffffffffffffffffffffffffff1673ffffffffffffffffffffffffffffffffffffffff16141515612de3576040517f08c379a000000000000000000000000000000000000000000000000000000000815260040180806020018281038252601e8152602001807f63616e206e6f742068617665206475706c69636174652067616d65494473000081525060200191505060405180910390fd5b6101006040519081016040528060028e0281526020018c73ffffffffffffffffffffffffffffffffffffffff1681526020017780828486898b8d8f90929496a9abadafb0b2b4b6b9bbbdbf81526020018a73ffffffffffffffffffffffffffffffffffffffff1681526020018973ffffffffffffffffffffffffffffffffffffffff1681526020016c01431e0fae6d7217caa000000081526020018873ffffffffffffffffffffffffffffffffffffffff168152602001878152506000808c81526020019081526020016000206000820151816000015560208201518160010160006101000a81548173ffffffffffffffffffffffffffffffffffffffff021916908373ffffffffffffffffffffffffffffffffffffffff1602179055506040820151816002015560608201518160030160006101000a81548173ffffffffffffffffffffffffffffffffffffffff021916908373ffffffffffffffffffffffffffffffffffffffff16021790555060808201518160040160006101000a81548173ffffffffffffffffffffffffffffffffffffffff021916908373ffffffffffffffffffffffffffffffffffffffff16021790555060a0820151816005015560c08201518160060160006101000a81548173ffffffffffffffffffffffffffffffffffffffff021916908373ffffffffffffffffffffffffffffffffffffffff16021790555060e08201518160070155905050505050505050505050505050565b600060606040805190810160405280601c81526020017f19457468657265756d205369676e6564204d6573736167653a0a3332000000008152509050600081876040516020018083805190602001908083835b60208310151561307d5780518252602082019150602081019050602083039250613058565b6001836020036101000a0380198251168184511680821785525050505050509050018281526020019250505060405160208183030381529060405280519060200120905060018187878760405160008152602001604052604051808581526020018460ff1660ff1681526020018381526020018281526020019450505050506020604051602081039080840390855afa15801561311e573d6000803e3d6000fd5b5050506020604051035192505050949350505050565b6101006040519081016040528060008152602001600073ffffffffffffffffffffffffffffffffffffffff16815260200160008152602001600073ffffffffffffffffffffffffffffffffffffffff168152602001600073ffffffffffffffffffffffffffffffffffffffff16815260200160008152602001600073ffffffffffffffffffffffffffffffffffffffff16815260200160008152509056fea165627a7a723058205757743ebab23a723a328f61a1c564a08dab92fcbb4f4db8805ed8e866e9c0aa0029",
  "source": "pragma solidity 0.5.0;\n\nimport \"./ValidatingContract.sol\";\n// contract ValidatingContract{\n//     function validStateUpdate(uint256, uint256) public pure returns(bool){}\n//     function p1Won(uint) public pure returns(bool){}\n//     function p1MovedLast(uint) public pure returns (bool){}\n//     function gameTied(uint) public pure returns(bool){}\n//     function getNonce(uint) public pure returns(uint){}\n// }\n\nimport \"./ERC20.sol\";\n\ncontract StateChGaming {\n\n    struct game{\n        uint256 gamePayout;\n        ERC20 tokenAddr;\n        uint256 state;\n        address p1;\n        address p2;\n        uint256 blockNum;\n        ValidatingContract vcAddr;\n        uint256 blocksPerTurn;\n    }\n    mapping (uint256 => game) public allGames;\n\n     modifier opponentLastPlayed(uint _gameID, uint _state) {\n        game memory gm = allGames[_gameID];\n        if (gm.vcAddr.p1MovedLast(gm.state)){\n            require (msg.sender == gm.p2,\"msg sender is invalid\");\n        }else{\n            require(msg.sender == gm.p1, \"msg sender is invalid\");\n        }\n        _;\n    }\n    modifier senderLastPlayed(uint _gameID) {\n        game memory gm = allGames[_gameID];\n        if (gm.vcAddr.p1MovedLast(gm.state)){\n            require (msg.sender == gm.p1, \"msg sender is invalid\");\n        }else{\n            require(msg.sender == gm.p2,\"msg sender is invalid\");\n        }\n        _;\n    }\n    modifier validMove(uint _gameID, uint _state){\n        uint tempstate = _state;\n        require (allGames[_gameID].vcAddr.validStateUpdate(allGames[_gameID].state, tempstate), \"invalid state update\");\n        _;\n    }\n\n    function addrFromHashAndSig(bytes32 DataHash, uint8 v, bytes32 r, bytes32 s) private pure returns(address) {\n        bytes memory prefix = \"\\x19Ethereum Signed Message:\\n32\";\n        bytes32 prefixedHash = keccak256(abi.encodePacked(prefix, DataHash));\n        return ecrecover(prefixedHash, v, r, s);\n    }\n\n    function initGame(uint256 _stakedAmount, ERC20 _erc20Addr, uint256 _gameID, address _p1, address _p2, ValidatingContract _vcAddr, uint256 _blocksPerTurn, uint8 _v, bytes32 _r, bytes32 _s) public {\n        require(_erc20Addr.transferFrom(_p1, address(this),_stakedAmount),\"not enough funds\");\n        require(_erc20Addr.transferFrom(_p2, address(this),_stakedAmount),\"not enough funds\");\n        \n        bytes32 DataHash = keccak256(abi.encodePacked(_stakedAmount, _erc20Addr,_gameID, _p1, _p2, _vcAddr, _blocksPerTurn));\n        address calcAddr = addrFromHashAndSig(DataHash, _v,_r,_s);\n        require(_p1 == calcAddr || _p1 == msg.sender, \"a player didnt sign or send\");\n        require(_p2 == calcAddr || _p2 == msg.sender, \"a player didnt sign or send\");\n\n        //require the gameID doesn't already exist\n        require (allGames[_gameID].p1 == address(0), \"can not have duplicate gameIDs\");\n        //starting board state is 0x000000000000000080828486898b8d8f90929496a9abadafb0b2b4b6b9bbbdbf or 3151051977652667687974785799204386029420487659316301249983\n        allGames[_gameID] = game(_stakedAmount*2, _erc20Addr, 3151051977652667687974785799204386029420487659316301249983, _p1, _p2, 100000000000000000000000000000, _vcAddr, _blocksPerTurn);\n    }\n\n    function initBCMove(uint _gameID, uint _state, uint8 _v, bytes32 _r, bytes32 _s) public {\n        game memory gm = allGames[_gameID];\n        bytes32 DataHash = keccak256(abi.encodePacked(_gameID,_state));\n        address calcAddr = addrFromHashAndSig(DataHash, _v,_r,_s);\n        require(gm.p1 == calcAddr || gm.p1 == msg.sender,\"a player didnt sign or send\");\n        require(gm.p2 == calcAddr || gm.p2 == msg.sender,\"a player didnt sign or send\");\n\n        //require that the new nonce is > the old nonce\n        require(gm.vcAddr.getNonce(_state) > gm.vcAddr.getNonce(gm.state),\"a new board must be at a higher turnNum\");\n        allGames[_gameID].blockNum = block.number;\n        allGames[_gameID].state = _state;\n    }\n\n    //this function is needed in case you give the BC and unenforced move and the opponent doesn't continue to play\n    function makeMoveTimed(uint _gameID) public senderLastPlayed(_gameID) {\n        allGames[_gameID].blockNum = block.number;\n    }\n    function makeMoveUntimed(uint _gameID) public senderLastPlayed(_gameID) {\n        allGames[_gameID].blockNum = 100000000000000000000000000000;\n    }\n    \n    function enforcedBCMove(uint _gameID, uint _state) public opponentLastPlayed(_gameID, _state) validMove(_gameID, _state){\n        allGames[_gameID].blockNum = block.number;\n        allGames[_gameID].state = _state;\n    }\n\n    function unenforcedBCMove(uint _gameID, uint _state) public opponentLastPlayed(_gameID, _state) validMove(_gameID, _state){\n        allGames[_gameID].blockNum = 100000000000000000000000000000;\n        allGames[_gameID].state = _state;\n    }\n        \n    function payoutVictory(uint _gameID) public{\n        game memory gm = allGames[_gameID];\n        //if p1Won doesn't revert then\n        if (gm.vcAddr.p1Won(gm.state)){\n            gm.tokenAddr.transfer(gm.p1, gm.gamePayout);\n        }\n        else{\n            gm.tokenAddr.transfer(gm.p2, gm.gamePayout);\n        }\n    }\n       \n    function payoutTimeout(uint _gameID) public {\n        game memory gm = allGames[_gameID];\n        require (block.number > (gm.blockNum + gm.blocksPerTurn), \"can't currently pay out due to timeout\");\n        if (gm.vcAddr.p1MovedLast(gm.state)){\n            gm.tokenAddr.transfer(gm.p1, gm.gamePayout);\n        }else{\n            gm.tokenAddr.transfer(gm.p2, gm.gamePayout);\n        }\n    }\n}",
  "sourcePath": "/home/mark/development/stateChannelCheckers/solidity/contracts/StateChGaming.sol",
  "compiler": {
    "name": "solc",
    "version": "0.5.0+commit.1d4f565a.Emscripten.clang"
  },
  "schemaVersion": "3.0.1",
  "updatedAt": "2019-03-26T04:57:56.413Z",
  "devdoc": {
    "methods": {}
  },
  "userdoc": {
    "methods": {}
  }
}